:020000040000FA
:100000000C9462000C948A000C948A000C948A0070
:100010000C948A000C948A000C948A000C948A0038
:100020000C948A000C948A000C948A000C948A0028
:100030000C948A000C948A000C948A000C948A0018
:100040000C948D050C948A000C948A000C948A0000
:100050000C948A000C948A000C948A000C948A00F8
:100060000C94D7050C948A000000000023002600A1
:10007000290000000008000201000003040700003E
:1000800000000000000000000000250028002B00F8
:1000900000000000240027002A00040404040404D3
:1000A0000404020202020202030303030303010227
:1000B00004081020408001020408102001020408F6
:1000C0001020F60611241FBECFEFD8E0DEBFCDBF53
:1000D00011E0A0E0B1E0E0EFF1E102C005900D9287
:1000E000A036B107D9F722E0A0E6B1E001C01D9229
:1000F000AE38B207E1F710E0C2E6D0E004C02197C5
:10010000FE010E94F008C136D107C9F70E94CA0754
:100110000C94F6080C940000FC0142835383648322
:10012000758386819781A085B185840F951FA61F51
:10013000B71F82879387A487B5870895CF93DF93EE
:1001400090E0FC01E255FF4F249186569F4FFC0141
:1001500084918823C1F090E0880F991FFC01E0573B
:10016000FF4FC591D491FC01EA57FF4FA591B4917F
:100170009FB7F8948881E22FE0958E2388838C9135
:10018000E823EC939FBFDF91CF91089508950895E0
:10019000AF92BF92CF92DF92EF92FF920F931F9395
:1001A000CF93DF936C017B018B01040F151FEB01D3
:1001B0005E01AE18BF08C017D10759F06991D6018A
:1001C000ED91FC910190F081E02DC6010995892BFC
:1001D00079F7C501DF91CF911F910F91FF90EF90BB
:1001E000DF90CF90BF90AF900895833081F028F4D6
:1001F000813099F08230A9F008958730A9F08830D5
:10020000C9F08430B1F4809180008F7D03C080916B
:1002100080008F7780938000089584B58F7784BDA8
:10022000089584B58F7DFBCF8091B0008F77809348
:10023000B00008958091B0008F7DF9CF1F93CF93C8
:10024000DF93282F30E0F901EE58FF4F8491F90138
:10025000E255FF4FD491F901E656FF4FC491CC23EC
:10026000A9F0162F81110E94F500EC2FF0E0EE0F9F
:10027000FF1FEA57FF4FA591B4918FB7F894EC9107
:10028000111108C0D095DE23DC938FBFDF91CF9191
:100290001F910895DE2BF8CF3FB7F8948091170295
:1002A00090911802A0911902B0911A0226B5A89B4C
:1002B00005C02F3F19F00196A11DB11D3FBFBA2FF8
:1002C000A92F982F8827BC01CD01620F711D811DB8
:1002D000911D42E0660F771F881F991F4A95D1F73D
:1002E00008958F929F92AF92BF92CF92DF92EF923A
:1002F000FF924B015C010E944C016B017C010E944A
:100300004C016C197D098E099F09683E7340810577
:100310009105A8F321E0821A9108A108B10888EE9E
:10032000C80E83E0D81EE11CF11C81149104A104C5
:10033000B10429F7FF90EF90DF90CF90BF90AF907E
:100340009F908F9008952FB7F89460911302709149
:10035000140280911502909116022FBF08950895FE
:100360008F929F92AF92BF92CF92DF92EF92FF92C5
:100370000F931F93CF93DF93EC01EE85FF853097AA
:1003800009F009950E94A3014B015C018E010D5EED
:100390001F4F6E0121E3C20ED11CF12CE12C89A963
:1003A0009AA9E816F90614F5D8018D919D918D0151
:1003B0000097C9F0BFEFEB1AFB0ADC01ED91FC914D
:1003C0000280F381E02DB501A4010995882359F03D
:1003D000F801329780819181DC01ED91FC910480DC
:1003E000F581E02D0995C016D106C9F60E94A3013A
:1003F0006E837F83888799870A811B812C813D8149
:10040000DC01CB01800F911FA21FB31F8A879B873E
:10041000AC87BD87DF91CF911F910F91FF90EF9037
:10042000DF90CF90BF90AF909F908F9008950F93E3
:100430001F93CF93DF93EC01EE85FF85309709F092
:1004400009950E94A3016E837F83888799870A811B
:100450001B812C813D81DC01CB01800F911FA21FEC
:10046000B31F8A879B87AC87BD87DF91CF911F9190
:100470000F9108950F931F93FC0102851385248526
:100480003585401B510B620B730B80E077FF808931
:100490001F910F9108952091A101260F3327331F3B
:1004A00021323105ECF42091EA01FC0190E080E07A
:1004B000243069F082E00895A091A1012191AC015E
:1004C0004F575E4FA40FB52FB11D2C930196861781
:1004D00098F38091A101680F6093A10180E00895D5
:1004E00081E008951092EA0181E08093E901109281
:1004F000C40161E082E10E941E0161E083E10E948B
:100500001E01E9EBF0E080818E7F808380818D7F0A
:10051000808388E48093B80085E48093BC000895CC
:10052000CF93DF9391E0909380018823B9F0C0913D
:10053000B800D091BA008091BC008A7B8093BC0047
:1005400060E082E10E941E0160E083E10E941E01E2
:100550000E947202D093BA00C093B800DF91CF918D
:1005600008950895E091220280912102E81730F465
:10057000F0E0E05AFE4F808190E008958FEF9FEF0A
:10058000089590912202809121022FEF3FEF98175A
:1005900048F4E92FF0E0E05AFE4F208130E09F5F01
:1005A00090932202C9010895809121029091220224
:1005B000891B990B0895CF92DF92EF92FF920F93D0
:1005C0001F93CF93DF937C01CB018A012091F0012F
:1005D000222389F0EB016B01C40ED51ECC15DD057D
:1005E00069F06991D701ED91FC910190F081E02DC6
:1005F000C7010995F3CF642F0E944B02C801DF9118
:10060000CF911F910F91FF90EF90DF90CF900895C1
:10061000CF93DF931F92CDB7DEB769832091F001AE
:100620002223F9F020911F02203258F021E030E01F
:10063000FC013383228390E080E00F90DF91CF9123
:10064000089580912002E82FF0E0EF50FE4F99814D
:1006500090838F5F8093200280931F0281E090E05F
:10066000ECCF61E0CE0101960E944B02F7CFCF9212
:10067000DF92EF92FF920F931F93CF93DF93FC01D2
:10068000C48121E02093F001C09311021092200256
:1006900010921F028485682B85E292E00E94080375
:1006A000D0911F02D13208F092C00E944C016B0120
:1006B0007C018091EA01811165C082E08093EA01AA
:1006C00081E08093E9018FEF8093E8011092E701C8
:1006D000D093E601A1EFB1E0E6ECF1E080E0D813C1
:1006E00085C01092C5018091C501CC0FC82BC09365
:1006F000C5018091C401813009F07CC01092C40111
:100700000E944C016B017C018091C5018093BB006C
:100710008091EC019091ED01A091EE01B091EF017B
:10072000892B8A2B8B2B99F00E944C010091EC01B4
:100730001091ED012091EE013091EF016C197D09CE
:100740008E099F090617170728073907E0F18091DE
:10075000BC0083FDD9CF85EC8093BC000E944C0186
:100760006B017C018091EA01823009F445C08091DF
:10077000E8018F3F61F18091E801803241F1809181
:10078000E80125C08091EC019091ED01A091EE016E
:10079000B091EF01892B8A2B8B2B09F48ACF0E9411
:1007A0004C010091EC011091ED012091EE0130918E
:1007B000EF016C197D098E099F0906171707280795
:1007C000390708F076CF8091EB010E9490021092D9
:1007D000200210921F021092F001DF91CF911F9121
:1007E0000F91FF90EF90DF90CF9008959D9191939E
:1007F0008F5F75CF85EEB0CF8091EC019091ED01C8
:10080000A091EE01B091EF01892B8A2B8B2B09F47B
:10081000A9CF0E944C010091EC011091ED012091B3
:10082000EE013091EF016C197D098E099F090617C1
:1008300017072807390708F095CFC5CF90E080E06B
:1008400008950F931F93CF93DF93EC010E94A301B0
:10085000AB01BC01898D9A8DAB8DBC8D0D891E8934
:100860002F89388D800F911FA21FB31F8417950702
:10087000A607B70708F4188ACE01DF91CF911F9120
:100880000F910C941702CF92DF92EF92FF920F9389
:100890001F93CF93DF93EC016A017B012B893C8985
:1008A0003327F901EE58FF4F8491F901E255FF4FCC
:1008B0001491F901E656FF4F0491011110C081E037
:1008C000888BB601C701C114D104E104F10411F40D
:1008D0000E94A301698F7A8F8B8F9C8F0EC081112C
:1008E0000E94F500E02FF0E0EE0FFF1FE859FF4FE8
:1008F000A591B491EC911E2311F3B701A601CE018D
:10090000DF91CF911F910F91FF90EF90DF90CF90EB
:100910000C943A028F929F92AF92BF920F931F93C3
:10092000CF93DF93CDB7DEB7A1970FB6F894DEBFB4
:100930000FBECDBF19A2423008F44AE08E010F5D10
:100940001F4F842E912CB12CA12CA50194010E9443
:10095000CE08E62FB901CA01EA3044F5E05DD801BE
:10096000EE938D01232B242B252B79F790E080E04B
:10097000109769F0FD0101900020E9F73197AF0170
:100980004A1B5B0BBD0181E892E00E94C800A19662
:100990000FB6F894DEBF0FBECDBFDF91CF911F9190
:1009A0000F91BF90AF909F908F900895E95CD7CF43
:1009B0000F931F93CF938C01C62F0E9437036C2F88
:1009C0006460C8010E9437036C2F6B7FC8010E94CE
:1009D000370383EC90E00197F1F7CF911F910F91CE
:1009E00008950F931F93CF93DF938C01D62FC42FBD
:1009F000607F642B0E94D80480E1D89FB00111244D
:100A00006C2BC801DF91CF911F910F910C94D804EA
:100A1000CF93DF93CDB7DEB728970FB6F894DEBF3C
:100A20000FBECDBF98E0E0E0F1E0DE01119601904D
:100A30000D929A95E1F790918902961710F46FEF55
:100A4000690F262F30E0220F331F41E050E04C0F9A
:100A50005D1F240F351FF9016081680F606840E059
:100A600081E892E028960FB6F894DEBF0FBECDBFA6
:100A7000DF91CF910C94F10440E061E081E892E0D5
:100A80000E94F1048BE39FE10197F1F780918A02C4
:100A9000882321F060E080E00C940805089541E08F
:100AA0000E94F10481E090E0089585ED8093BC0000
:100AB0008091EC019091ED01A091EE01B091EF01D8
:100AC0000796A11DB11D23E0B695A795979587952B
:100AD0002A95D1F72091BC0024FD03C01092EA01B1
:100AE00008954091EC015091ED016091EE017091FB
:100AF000EF01452B462B472B69F30097A105B10564
:100B000041F025E32A95F1F700000197A109B10909
:100B1000E1CF8091EB010C9490021F920F920FB6DF
:100B20000F9211242F933F938F939F93AF93BF9373
:100B30008091130290911402A0911502B0911602B7
:100B40003091120223E0230F2D3758F50196A11D95
:100B5000B11D209312028093130290931402A0936C
:100B60001502B09316028091170290911802A0917D
:100B70001902B0911A020196A11DB11D80931702AE
:100B800090931802A0931902B0931A02BF91AF91EB
:100B90009F918F913F912F910F900FBE0F901F90BB
:100BA000189526E8230F0296A11DB11DD2CF1F92E2
:100BB0000F920FB60F9211242F933F934F935F9391
:100BC0006F937F938F939F93AF93BF93EF93FF9315
:100BD0008091B900887F803609F44AC0F0F58832E8
:100BE00009F4A7C018F5803109F49BC0B8F4882334
:100BF00009F4F9C0883009F494C0FF91EF91BF91D6
:100C0000AF919F918F917F916F915F914F913F91A4
:100C10002F910F900FBE0F901F901895883109F4F7
:100C200088C0803251F78093E80114C0803409F401
:100C30009DC040F48033B9F38833F9F68093E8011E
:100C400085ECB0C0803509F485C0883509F496C0BC
:100C5000883499F60E945505D0CF883909F48CC0A4
:100C600038F5883729F050F4883611F0803729F6A6
:100C700083E08093EA011092C30157C0883809F4D9
:100C80007BC0803919F0803809F0B7CF8091C3015B
:100C9000803208F071C0E091C30181E08E0F809333
:100CA000C3018091BB00F0E0ED55FE4F80833DC055
:100CB000803B39F0E0F4803A09F479C0883A09F0D1
:100CC0009CCF84E08093EA011092A2011092A101CE
:100CD000E0911D02F0911E0209958091A101811100
:100CE0000FC081E08093A1011092810109C0803C76
:100CF00009F4A6CF883C09F4A3CF883B09F07DCF47
:100D0000E091A20181E08E0F8093A201F0E0EF5705
:100D1000FE4F80818093BB009091A2018091A10140
:100D200029C08091C5018093BB0085EC8093BC00F5
:100D300064CF9091E7018091E601981758F5E09112
:100D4000E70181E08E0F8093E701F0E0EA53FE4F68
:100D50008081E9CFE091E70181E08E0F8093E70188
:100D60008091BB00F0E0EA53FE4F80839091E70151
:100D70008091E6019817C8F285E8D8CFE091E701A5
:100D800081E08E0F8093E7018091BB00F0E0EA5391
:100D9000FE4F80838091E90181115CCF81E08093D7
:100DA000C40184EA8093BC001092EA0126CF85EC4E
:100DB0008093BC001092EA018091C301803230F42C
:100DC000E091C301F0E0ED55FE4F10826091C30148
:100DD00070E0E0911B02F0911C0283EA91E009951A
:100DE0001092C3010ACF1092E80134CF109228026A
:100DF0001092270288EE93E0A0E0B0E080932902F1
:100E000090932A02A0932B02B0932C028CE091E0E5
:100E100090932602809325021092840210928302FE
:100E20008CE391E0909382028093810210928A0277
:100E300087E28093850280E180938B0282E0809339
:100E40008C0210928D0288E291E090934F02809381
:100E50004E0281E080935E0210925D0210925C026D
:100E6000109258021092590210925A0210925B028C
:100E70000E94A3016093540270935502809356021E
:100E8000909357022EE432E03093600220935F0289
:100E9000109250021092510210925202109253027C
:100EA000609358027093590280935A0290935B02A8
:100EB00082E391E090934F0280934E021092800261
:100EC00010927F02E1E6F2E08FE792E01192119238
:100ED0008E179F07D9F788E291E0909332028093B2
:100EE000310281E0809341021092400210923F0251
:100EF00010923B0210923C0210923D0210923E0270
:100F00000E94A301609337027093380280933902E4
:100F100090933A0221E332E030934302209342025D
:100F2000109233021092340210923502109236025F
:100F300060933B0270933C0280933D0290933E028B
:100F40008EE191E0909332028093310283E090E051
:100F5000909345028093440280E29EE4A0E0B0E0DA
:100F60008093460290934702A0934802B0934902AF
:100F700010924A0210924B0210924C0210924D02B3
:100F80001092410283E00E949E0061E08091440241
:100F90000C941E01789484B5826084BD84B5816010
:100FA00084BD85B5826085BD85B5816085BD809134
:100FB0006E00816080936E001092810080918100AC
:100FC00082608093810080918100816080938100A4
:100FD000809180008160809380008091B100846066
:100FE0008093B1008091B00081608093B0008091C7
:100FF0007A00846080937A0080917A008260809386
:101000007A0080917A00816080937A0080917A00E2
:10101000806880937A001092C10010922202109290
:1010200021021092200210921F020E94720286EC8E
:1010300090E090931E0280931D0287EC90E09093C5
:101040001C0280931B021092860280918C028230D7
:1010500018F098E0909386028093890262E370E032
:1010600080E090E00E94710160918D0281E892E041
:101070000E94370368EE73E080E090E00E94710107
:1010800060E381E892E00E94D804CBE4D6E4CE018C
:101090000197F1F760E381E892E00E94D80421977C
:1010A000F1F760E381E892E00E94D80483E592E0E2
:1010B0000197F1F760E281E892E00E94D804609124
:1010C0008602606240E081E892E00E94F10484E0E0
:1010D0008093870240E06CE081E892E00E94F10496
:1010E0000E943C0582E08093880240E066E081E84F
:1010F00092E00E94F10440E062E081E892E00E9408
:10110000F1048BE39FE10197F1F788E080938D0272
:1011100060E081E892E00E94370383E00E949E0035
:1011200061E082E00E9408054EE050E064E471E076
:1011300081E892E00E94C80068EB7BE080E090E0EC
:101140000E9471010E943C0561E082E00E94080556
:101150004BE050E063E571E081E892E00E94C80056
:10116000D0E0C0E0D0932402C093230266E082E086
:101170000E940805BE01DD0F880B990B4AE00E9412
:101180008A0468EB7BE080E090E00E947101C0E09F
:10119000D0E02097F1F30E940000FBCFA1E21A2ECD
:1011A000AA1BBB1BFD010DC0AA1FBB1FEE1FFF1F0B
:1011B000A217B307E407F50720F0A21BB30BE40B5B
:1011C000F50B661F771F881F991F1A9469F76095A2
:1011D0007095809590959B01AC01BD01CF0108955C
:1011E000EE0FFF1F0590F491E02D0994F894FFCFC6
:1011F0000000400014005400000000000803DB025F
:101200001E04B102D402C102B202000000008C0030
:1012100043042104000000008C003A021702000081
:1012200000008C003A02B001000000004F05C80029
:101230001E04AF014175726120416C7068612042EB
:101240006F78004672656375656E6369613A000088
:107E0000112484B714BE81FFF0D085E080938100F7
:107E100082E08093C00088E18093C10086E0809377
:107E2000C20080E18093C4008EE0C9D0259A86E02C
:107E300020E33CEF91E0309385002093840096BBD3
:107E4000B09BFECF1D9AA8958150A9F7CC24DD24C4
:107E500088248394B5E0AB2EA1E19A2EF3E0BF2EE7
:107E6000A2D0813461F49FD0082FAFD0023811F036
:107E7000013811F484E001C083E08DD089C08234E0
:107E800011F484E103C0853419F485E0A6D080C0E4
:107E9000853579F488D0E82EFF2485D0082F10E0AE
:107EA000102F00270E291F29000F111F8ED06801E7
:107EB0006FC0863521F484E090D080E0DECF843638
:107EC00009F040C070D06FD0082F6DD080E0C81688
:107ED00080E7D80618F4F601B7BEE895C0E0D1E017
:107EE00062D089930C17E1F7F0E0CF16F0E7DF06D8
:107EF00018F0F601B7BEE89568D007B600FCFDCFD4
:107F0000A601A0E0B1E02C9130E011968C91119780
:107F100090E0982F8827822B932B1296FA010C0160
:107F200087BEE89511244E5F5F4FF1E0A038BF0790
:107F300051F7F601A7BEE89507B600FCFDCF97BE46
:107F4000E89526C08437B1F42ED02DD0F82E2BD052
:107F50003CD0F601EF2C8F010F5F1F4F84911BD097
:107F6000EA94F801C1F70894C11CD11CFA94CF0C13
:107F7000D11C0EC0853739F428D08EE10CD085E9AC
:107F80000AD08FE07ACF813511F488E018D01DD067
:107F900080E101D065CF982F8091C00085FFFCCF94
:107FA0009093C60008958091C00087FFFCCF809118
:107FB000C00084FD01C0A8958091C6000895E0E648
:107FC000F0E098E1908380830895EDDF803219F02E
:107FD00088E0F5DFFFCF84E1DECF1F93182FE3DFCA
:107FE0001150E9F7F2DF1F91089580E0E8DFEE27F6
:047FF000FF270994CA
:027FFE00040479
:00000001FF
